{
  "_format": "hh-sol-artifact-1",
  "contractName": "Domain",
  "sourceName": "contracts/Domain.sol",
  "abi": [
    {
      "inputs": [
        {
          "internalType": "string",
          "name": "_tld",
          "type": "string"
        }
      ],
      "stateMutability": "payable",
      "type": "constructor"
    },
    {
      "anonymous": false,
      "inputs": [
        {
          "indexed": true,
          "internalType": "address",
          "name": "owner",
          "type": "address"
        },
        {
          "indexed": true,
          "internalType": "address",
          "name": "approved",
          "type": "address"
        },
        {
          "indexed": true,
          "internalType": "uint256",
          "name": "tokenId",
          "type": "uint256"
        }
      ],
      "name": "Approval",
      "type": "event"
    },
    {
      "anonymous": false,
      "inputs": [
        {
          "indexed": true,
          "internalType": "address",
          "name": "owner",
          "type": "address"
        },
        {
          "indexed": true,
          "internalType": "address",
          "name": "operator",
          "type": "address"
        },
        {
          "indexed": false,
          "internalType": "bool",
          "name": "approved",
          "type": "bool"
        }
      ],
      "name": "ApprovalForAll",
      "type": "event"
    },
    {
      "anonymous": false,
      "inputs": [
        {
          "indexed": true,
          "internalType": "address",
          "name": "from",
          "type": "address"
        },
        {
          "indexed": true,
          "internalType": "address",
          "name": "to",
          "type": "address"
        },
        {
          "indexed": true,
          "internalType": "uint256",
          "name": "tokenId",
          "type": "uint256"
        }
      ],
      "name": "Transfer",
      "type": "event"
    },
    {
      "inputs": [
        {
          "internalType": "address",
          "name": "to",
          "type": "address"
        },
        {
          "internalType": "uint256",
          "name": "tokenId",
          "type": "uint256"
        }
      ],
      "name": "approve",
      "outputs": [],
      "stateMutability": "nonpayable",
      "type": "function"
    },
    {
      "inputs": [
        {
          "internalType": "address",
          "name": "owner",
          "type": "address"
        }
      ],
      "name": "balanceOf",
      "outputs": [
        {
          "internalType": "uint256",
          "name": "",
          "type": "uint256"
        }
      ],
      "stateMutability": "view",
      "type": "function"
    },
    {
      "inputs": [
        {
          "internalType": "string",
          "name": "",
          "type": "string"
        }
      ],
      "name": "domains",
      "outputs": [
        {
          "internalType": "address",
          "name": "",
          "type": "address"
        }
      ],
      "stateMutability": "view",
      "type": "function"
    },
    {
      "inputs": [
        {
          "internalType": "string",
          "name": "name",
          "type": "string"
        }
      ],
      "name": "getAddress",
      "outputs": [
        {
          "internalType": "address",
          "name": "",
          "type": "address"
        }
      ],
      "stateMutability": "view",
      "type": "function"
    },
    {
      "inputs": [],
      "name": "getAllNames",
      "outputs": [
        {
          "internalType": "string[]",
          "name": "",
          "type": "string[]"
        }
      ],
      "stateMutability": "view",
      "type": "function"
    },
    {
      "inputs": [
        {
          "internalType": "uint256",
          "name": "tokenId",
          "type": "uint256"
        }
      ],
      "name": "getApproved",
      "outputs": [
        {
          "internalType": "address",
          "name": "",
          "type": "address"
        }
      ],
      "stateMutability": "view",
      "type": "function"
    },
    {
      "inputs": [
        {
          "internalType": "string",
          "name": "name",
          "type": "string"
        }
      ],
      "name": "getRecord",
      "outputs": [
        {
          "internalType": "string",
          "name": "",
          "type": "string"
        }
      ],
      "stateMutability": "view",
      "type": "function"
    },
    {
      "inputs": [
        {
          "internalType": "address",
          "name": "owner",
          "type": "address"
        },
        {
          "internalType": "address",
          "name": "operator",
          "type": "address"
        }
      ],
      "name": "isApprovedForAll",
      "outputs": [
        {
          "internalType": "bool",
          "name": "",
          "type": "bool"
        }
      ],
      "stateMutability": "view",
      "type": "function"
    },
    {
      "inputs": [],
      "name": "isOwner",
      "outputs": [
        {
          "internalType": "bool",
          "name": "",
          "type": "bool"
        }
      ],
      "stateMutability": "view",
      "type": "function"
    },
    {
      "inputs": [],
      "name": "name",
      "outputs": [
        {
          "internalType": "string",
          "name": "",
          "type": "string"
        }
      ],
      "stateMutability": "view",
      "type": "function"
    },
    {
      "inputs": [
        {
          "internalType": "uint256",
          "name": "",
          "type": "uint256"
        }
      ],
      "name": "names",
      "outputs": [
        {
          "internalType": "string",
          "name": "",
          "type": "string"
        }
      ],
      "stateMutability": "view",
      "type": "function"
    },
    {
      "inputs": [],
      "name": "owner",
      "outputs": [
        {
          "internalType": "address payable",
          "name": "",
          "type": "address"
        }
      ],
      "stateMutability": "view",
      "type": "function"
    },
    {
      "inputs": [
        {
          "internalType": "uint256",
          "name": "tokenId",
          "type": "uint256"
        }
      ],
      "name": "ownerOf",
      "outputs": [
        {
          "internalType": "address",
          "name": "",
          "type": "address"
        }
      ],
      "stateMutability": "view",
      "type": "function"
    },
    {
      "inputs": [
        {
          "internalType": "string",
          "name": "name",
          "type": "string"
        }
      ],
      "name": "price",
      "outputs": [
        {
          "internalType": "uint256",
          "name": "",
          "type": "uint256"
        }
      ],
      "stateMutability": "pure",
      "type": "function"
    },
    {
      "inputs": [
        {
          "internalType": "string",
          "name": "",
          "type": "string"
        }
      ],
      "name": "records",
      "outputs": [
        {
          "internalType": "string",
          "name": "",
          "type": "string"
        }
      ],
      "stateMutability": "view",
      "type": "function"
    },
    {
      "inputs": [
        {
          "internalType": "string",
          "name": "name",
          "type": "string"
        }
      ],
      "name": "register",
      "outputs": [],
      "stateMutability": "payable",
      "type": "function"
    },
    {
      "inputs": [
        {
          "internalType": "address",
          "name": "from",
          "type": "address"
        },
        {
          "internalType": "address",
          "name": "to",
          "type": "address"
        },
        {
          "internalType": "uint256",
          "name": "tokenId",
          "type": "uint256"
        }
      ],
      "name": "safeTransferFrom",
      "outputs": [],
      "stateMutability": "nonpayable",
      "type": "function"
    },
    {
      "inputs": [
        {
          "internalType": "address",
          "name": "from",
          "type": "address"
        },
        {
          "internalType": "address",
          "name": "to",
          "type": "address"
        },
        {
          "internalType": "uint256",
          "name": "tokenId",
          "type": "uint256"
        },
        {
          "internalType": "bytes",
          "name": "_data",
          "type": "bytes"
        }
      ],
      "name": "safeTransferFrom",
      "outputs": [],
      "stateMutability": "nonpayable",
      "type": "function"
    },
    {
      "inputs": [
        {
          "internalType": "address",
          "name": "operator",
          "type": "address"
        },
        {
          "internalType": "bool",
          "name": "approved",
          "type": "bool"
        }
      ],
      "name": "setApprovalForAll",
      "outputs": [],
      "stateMutability": "nonpayable",
      "type": "function"
    },
    {
      "inputs": [
        {
          "internalType": "string",
          "name": "name",
          "type": "string"
        },
        {
          "internalType": "string",
          "name": "record",
          "type": "string"
        }
      ],
      "name": "setRecord",
      "outputs": [],
      "stateMutability": "nonpayable",
      "type": "function"
    },
    {
      "inputs": [
        {
          "internalType": "bytes4",
          "name": "interfaceId",
          "type": "bytes4"
        }
      ],
      "name": "supportsInterface",
      "outputs": [
        {
          "internalType": "bool",
          "name": "",
          "type": "bool"
        }
      ],
      "stateMutability": "view",
      "type": "function"
    },
    {
      "inputs": [],
      "name": "symbol",
      "outputs": [
        {
          "internalType": "string",
          "name": "",
          "type": "string"
        }
      ],
      "stateMutability": "view",
      "type": "function"
    },
    {
      "inputs": [],
      "name": "tld",
      "outputs": [
        {
          "internalType": "string",
          "name": "",
          "type": "string"
        }
      ],
      "stateMutability": "view",
      "type": "function"
    },
    {
      "inputs": [
        {
          "internalType": "uint256",
          "name": "tokenId",
          "type": "uint256"
        }
      ],
      "name": "tokenURI",
      "outputs": [
        {
          "internalType": "string",
          "name": "",
          "type": "string"
        }
      ],
      "stateMutability": "view",
      "type": "function"
    },
    {
      "inputs": [
        {
          "internalType": "address",
          "name": "from",
          "type": "address"
        },
        {
          "internalType": "address",
          "name": "to",
          "type": "address"
        },
        {
          "internalType": "uint256",
          "name": "tokenId",
          "type": "uint256"
        }
      ],
      "name": "transferFrom",
      "outputs": [],
      "stateMutability": "nonpayable",
      "type": "function"
    },
    {
      "inputs": [
        {
          "internalType": "string",
          "name": "name",
          "type": "string"
        }
      ],
      "name": "valid",
      "outputs": [
        {
          "internalType": "bool",
          "name": "",
          "type": "bool"
        }
      ],
      "stateMutability": "pure",
      "type": "function"
    },
    {
      "inputs": [],
      "name": "withdraw",
      "outputs": [],
      "stateMutability": "nonpayable",
      "type": "function"
    }
  ],
  "bytecode": "0x6080604052604051806108a0016040528061086b8152602001620054fe61086b9139600a908051906020019062000038929190620002c8565b506040518060400160405280600d81526020017f3c2f746578743e3c2f7376673e00000000000000000000000000000000000000815250600b908051906020019062000086929190620002c8565b5060405162005d6938038062005d698339818101604052810190620000ac919062000515565b6040518060400160405280601281526020017f4e696e6a61204e616d65205365727669636500000000000000000000000000008152506040518060400160405280600381526020017f4e4e530000000000000000000000000000000000000000000000000000000000815250816000908051906020019062000130929190620002c8565b50806001908051906020019062000149929190620002c8565b50505033600960006101000a81548173ffffffffffffffffffffffffffffffffffffffff021916908373ffffffffffffffffffffffffffffffffffffffff1602179055508060089080519060200190620001a5929190620002c8565b50620001f26040518060400160405280601881526020017f2573206e616d652073657276696365206465706c6f796564000000000000000081525082620001f960201b62001be71760201c565b5062000663565b6200029b828260405160240162000212929190620005c3565b6040516020818303038152906040527f4b5c4277000000000000000000000000000000000000000000000000000000007bffffffffffffffffffffffffffffffffffffffffffffffffffffffff19166020820180517bffffffffffffffffffffffffffffffffffffffffffffffffffffffff83818316178352505050506200029f60201b60201c565b5050565b60008151905060006a636f6e736f6c652e6c6f679050602083016000808483855afa5050505050565b828054620002d6906200062d565b90600052602060002090601f016020900481019282620002fa576000855562000346565b82601f106200031557805160ff191683800117855562000346565b8280016001018555821562000346579182015b828111156200034557825182559160200191906001019062000328565b5b50905062000355919062000359565b5090565b5b80821115620003745760008160009055506001016200035a565b5090565b6000604051905090565b600080fd5b600080fd5b600080fd5b600080fd5b6000601f19601f8301169050919050565b7f4e487b7100000000000000000000000000000000000000000000000000000000600052604160045260246000fd5b620003e18262000396565b810181811067ffffffffffffffff82111715620004035762000402620003a7565b5b80604052505050565b60006200041862000378565b9050620004268282620003d6565b919050565b600067ffffffffffffffff821115620004495762000448620003a7565b5b620004548262000396565b9050602081019050919050565b60005b838110156200048157808201518184015260208101905062000464565b8381111562000491576000848401525b50505050565b6000620004ae620004a8846200042b565b6200040c565b905082815260208101848484011115620004cd57620004cc62000391565b5b620004da84828562000461565b509392505050565b600082601f830112620004fa57620004f96200038c565b5b81516200050c84826020860162000497565b91505092915050565b6000602082840312156200052e576200052d62000382565b5b600082015167ffffffffffffffff8111156200054f576200054e62000387565b5b6200055d84828501620004e2565b91505092915050565b600081519050919050565b600082825260208201905092915050565b60006200058f8262000566565b6200059b818562000571565b9350620005ad81856020860162000461565b620005b88162000396565b840191505092915050565b60006040820190508181036000830152620005df818562000582565b90508181036020830152620005f5818462000582565b90509392505050565b7f4e487b7100000000000000000000000000000000000000000000000000000000600052602260045260246000fd5b600060028204905060018216806200064657607f821691505b602082108114156200065d576200065c620005fe565b5b50919050565b614e8b80620006736000396000f3fe60806040526004361061019c5760003560e01c806370a08231116100ec578063bf40fac11161008a578063e985e9c511610064578063e985e9c514610624578063f2c298be14610661578063fb825e5f1461067d578063fe2c6198146106a85761019c565b8063bf40fac114610581578063c1880a98146105be578063c87b56dd146105e75761019c565b806395d89b41116100c657806395d89b41146104c75780639791c097146104f2578063a22cb4651461052f578063b88d4fde146105585761019c565b806370a08231146104345780638da5cb5b146104715780638f32d59b1461049c5761019c565b8063264492351161015957806342842e0e1161013357806342842e0e146103545780634622ab031461037d578063541e771d146103ba5780636352211e146103f75761019c565b806326449235146102d55780632d551432146103125780633ccfd60b1461033d5761019c565b806301ffc9a7146101a157806306fdde03146101de578063081812fc14610209578063095ea7b31461024657806311dd88451461026f57806323b872dd146102ac575b600080fd5b3480156101ad57600080fd5b506101c860048036038101906101c39190613168565b6106e5565b6040516101d591906131b0565b60405180910390f35b3480156101ea57600080fd5b506101f36107c7565b6040516102009190613264565b60405180910390f35b34801561021557600080fd5b50610230600480360381019061022b91906132bc565b610859565b60405161023d919061332a565b60405180910390f35b34801561025257600080fd5b5061026d60048036038101906102689190613371565b6108de565b005b34801561027b57600080fd5b5061029660048036038101906102919190613416565b6109f6565b6040516102a39190613264565b60405180910390f35b3480156102b857600080fd5b506102d360048036038101906102ce9190613463565b610aa9565b005b3480156102e157600080fd5b506102fc60048036038101906102f791906135e6565b610b09565b604051610309919061332a565b60405180910390f35b34801561031e57600080fd5b50610327610b52565b6040516103349190613264565b60405180910390f35b34801561034957600080fd5b50610352610be0565b005b34801561036057600080fd5b5061037b60048036038101906103769190613463565b610ca6565b005b34801561038957600080fd5b506103a4600480360381019061039f91906132bc565b610cc6565b6040516103b19190613264565b60405180910390f35b3480156103c657600080fd5b506103e160048036038101906103dc91906135e6565b610d66565b6040516103ee9190613264565b60405180910390f35b34801561040357600080fd5b5061041e600480360381019061041991906132bc565b610e1c565b60405161042b919061332a565b60405180910390f35b34801561044057600080fd5b5061045b6004803603810190610456919061362f565b610ece565b604051610468919061366b565b60405180910390f35b34801561047d57600080fd5b50610486610f86565b60405161049391906136a7565b60405180910390f35b3480156104a857600080fd5b506104b1610fac565b6040516104be91906131b0565b60405180910390f35b3480156104d357600080fd5b506104dc611004565b6040516104e99190613264565b60405180910390f35b3480156104fe57600080fd5b5061051960048036038101906105149190613416565b611096565b60405161052691906131b0565b60405180910390f35b34801561053b57600080fd5b50610556600480360381019061055191906136ee565b61114a565b005b34801561056457600080fd5b5061057f600480360381019061057a91906137cf565b611160565b005b34801561058d57600080fd5b506105a860048036038101906105a39190613416565b6111c2565b6040516105b5919061332a565b60405180910390f35b3480156105ca57600080fd5b506105e560048036038101906105e09190613852565b61120d565b005b3480156105f357600080fd5b5061060e600480360381019061060991906132bc565b6112bb565b60405161061b9190613264565b60405180910390f35b34801561063057600080fd5b5061064b600480360381019061064691906138d3565b61140d565b60405161065891906131b0565b60405180910390f35b61067b60048036038101906106769190613416565b6114a1565b005b34801561068957600080fd5b50610692611963565b60405161069f9190613a1f565b60405180910390f35b3480156106b457600080fd5b506106cf60048036038101906106ca9190613416565b611b41565b6040516106dc919061366b565b60405180910390f35b60007f80ac58cd000000000000000000000000000000000000000000000000000000007bffffffffffffffffffffffffffffffffffffffffffffffffffffffff1916827bffffffffffffffffffffffffffffffffffffffffffffffffffffffff191614806107b057507f5b5e139f000000000000000000000000000000000000000000000000000000007bffffffffffffffffffffffffffffffffffffffffffffffffffffffff1916827bffffffffffffffffffffffffffffffffffffffffffffffffffffffff1916145b806107c057506107bf82611c83565b5b9050919050565b6060600080546107d690613a70565b80601f016020809104026020016040519081016040528092919081815260200182805461080290613a70565b801561084f5780601f106108245761010080835404028352916020019161084f565b820191906000526020600020905b81548152906001019060200180831161083257829003601f168201915b5050505050905090565b600061086482611ced565b6108a3576040517f08c379a000000000000000000000000000000000000000000000000000000000815260040161089a90613b14565b60405180910390fd5b6004600083815260200190815260200160002060009054906101000a900473ffffffffffffffffffffffffffffffffffffffff169050919050565b60006108e982610e1c565b90508073ffffffffffffffffffffffffffffffffffffffff168373ffffffffffffffffffffffffffffffffffffffff16141561095a576040517f08c379a000000000000000000000000000000000000000000000000000000000815260040161095190613ba6565b60405180910390fd5b8073ffffffffffffffffffffffffffffffffffffffff16610979611d59565b73ffffffffffffffffffffffffffffffffffffffff1614806109a857506109a7816109a2611d59565b61140d565b5b6109e7576040517f08c379a00000000000000000000000000000000000000000000000000000000081526004016109de90613c38565b60405180910390fd5b6109f18383611d61565b505050565b6060600d8383604051610a0a929190613c88565b90815260200160405180910390208054610a2390613a70565b80601f0160208091040260200160405190810160405280929190818152602001828054610a4f90613a70565b8015610a9c5780601f10610a7157610100808354040283529160200191610a9c565b820191906000526020600020905b815481529060010190602001808311610a7f57829003601f168201915b5050505050905092915050565b610aba610ab4611d59565b82611e1a565b610af9576040517f08c379a0000000000000000000000000000000000000000000000000000000008152600401610af090613d13565b60405180910390fd5b610b04838383611ef8565b505050565b600c818051602081018201805184825260208301602085012081835280955050505050506000915054906101000a900473ffffffffffffffffffffffffffffffffffffffff1681565b60088054610b5f90613a70565b80601f0160208091040260200160405190810160405280929190818152602001828054610b8b90613a70565b8015610bd85780601f10610bad57610100808354040283529160200191610bd8565b820191906000526020600020905b815481529060010190602001808311610bbb57829003601f168201915b505050505081565b610be8610fac565b610bf157600080fd5b600047905060003373ffffffffffffffffffffffffffffffffffffffff1682604051610c1c90613d64565b60006040518083038185875af1925050503d8060008114610c59576040519150601f19603f3d011682016040523d82523d6000602084013e610c5e565b606091505b5050905080610ca2576040517f08c379a0000000000000000000000000000000000000000000000000000000008152600401610c9990613dc5565b60405180910390fd5b5050565b610cc183838360405180602001604052806000815250611160565b505050565b600e6020528060005260406000206000915090508054610ce590613a70565b80601f0160208091040260200160405190810160405280929190818152602001828054610d1190613a70565b8015610d5e5780601f10610d3357610100808354040283529160200191610d5e565b820191906000526020600020905b815481529060010190602001808311610d4157829003601f168201915b505050505081565b600d818051602081018201805184825260208301602085012081835280955050505050506000915090508054610d9b90613a70565b80601f0160208091040260200160405190810160405280929190818152602001828054610dc790613a70565b8015610e145780601f10610de957610100808354040283529160200191610e14565b820191906000526020600020905b815481529060010190602001808311610df757829003601f168201915b505050505081565b6000806002600084815260200190815260200160002060009054906101000a900473ffffffffffffffffffffffffffffffffffffffff169050600073ffffffffffffffffffffffffffffffffffffffff168173ffffffffffffffffffffffffffffffffffffffff161415610ec5576040517f08c379a0000000000000000000000000000000000000000000000000000000008152600401610ebc90613e57565b60405180910390fd5b80915050919050565b60008073ffffffffffffffffffffffffffffffffffffffff168273ffffffffffffffffffffffffffffffffffffffff161415610f3f576040517f08c379a0000000000000000000000000000000000000000000000000000000008152600401610f3690613ee9565b60405180910390fd5b600360008373ffffffffffffffffffffffffffffffffffffffff1673ffffffffffffffffffffffffffffffffffffffff168152602001908152602001600020549050919050565b600960009054906101000a900473ffffffffffffffffffffffffffffffffffffffff1681565b6000600960009054906101000a900473ffffffffffffffffffffffffffffffffffffffff1673ffffffffffffffffffffffffffffffffffffffff163373ffffffffffffffffffffffffffffffffffffffff1614905090565b60606001805461101390613a70565b80601f016020809104026020016040519081016040528092919081815260200182805461103f90613a70565b801561108c5780601f106110615761010080835404028352916020019161108c565b820191906000526020600020905b81548152906001019060200180831161106f57829003601f168201915b5050505050905090565b600060036110e784848080601f016020809104026020016040519081016040528093929190818152602001838380828437600081840152601f19601f8201169050808301925050505050505061215f565b101580156111425750600a61113f84848080601f016020809104026020016040519081016040528093929190818152602001838380828437600081840152601f19601f8201169050808301925050505050505061215f565b11155b905092915050565b61115c611155611d59565b8383612314565b5050565b61117161116b611d59565b83611e1a565b6111b0576040517f08c379a00000000000000000000000000000000000000000000000000000000081526004016111a790613d13565b60405180910390fd5b6111bc84848484612481565b50505050565b6000600c83836040516111d6929190613c88565b908152602001604051809103902060009054906101000a900473ffffffffffffffffffffffffffffffffffffffff16905092915050565b3373ffffffffffffffffffffffffffffffffffffffff16600c8585604051611236929190613c88565b908152602001604051809103902060009054906101000a900473ffffffffffffffffffffffffffffffffffffffff1673ffffffffffffffffffffffffffffffffffffffff161461128557600080fd5b8181600d8686604051611299929190613c88565b908152602001604051809103902091906112b4929190612fd3565b5050505050565b60606112c682611ced565b611305576040517f08c379a00000000000000000000000000000000000000000000000000000000081526004016112fc90613f7b565b60405180910390fd5b600060066000848152602001908152602001600020805461132590613a70565b80601f016020809104026020016040519081016040528092919081815260200182805461135190613a70565b801561139e5780601f106113735761010080835404028352916020019161139e565b820191906000526020600020905b81548152906001019060200180831161138157829003601f168201915b5050505050905060006113af6124dd565b90506000815114156113c5578192505050611408565b6000825111156113fa5780826040516020016113e2929190613fcc565b60405160208183030381529060405292505050611408565b611403846124f4565b925050505b919050565b6000600560008473ffffffffffffffffffffffffffffffffffffffff1673ffffffffffffffffffffffffffffffffffffffff16815260200190815260200160002060008373ffffffffffffffffffffffffffffffffffffffff1673ffffffffffffffffffffffffffffffffffffffff16815260200190815260200160002060009054906101000a900460ff16905092915050565b600073ffffffffffffffffffffffffffffffffffffffff16600c83836040516114cb929190613c88565b908152602001604051809103902060009054906101000a900473ffffffffffffffffffffffffffffffffffffffff1673ffffffffffffffffffffffffffffffffffffffff1614611550576040517f08c379a00000000000000000000000000000000000000000000000000000000081526004016115479061403c565b60405180910390fd5b61155a8282611096565b611599576040517f08c379a0000000000000000000000000000000000000000000000000000000008152600401611590906140a8565b60405180910390fd5b60006115a58383611b41565b9050803410156115ea576040517f08c379a00000000000000000000000000000000000000000000000000000000081526004016115e190614114565b60405180910390fd5b60008383600860405160200161160293929190614214565b60405160208183030381529060405290506000600a82600b60405160200161162c93929190614245565b60405160208183030381529060405290506000611649600761259b565b9050600061169a87878080601f016020809104026020016040519081016040528093929190818152602001838380828437600081840152601f19601f8201169050808301925050505050505061215f565b905060006116a7826125a9565b905061179b604051806060016040528060318152602001614dac6031913989898080601f016020809104026020016040519081016040528093929190818152602001838380828437600081840152601f19601f820116905080830192505050505050506008805461171790613a70565b80601f016020809104026020016040519081016040528092919081815260200182805461174390613a70565b80156117905780601f1061176557610100808354040283529160200191611790565b820191906000526020600020905b81548152906001019060200180831161177357829003601f168201915b50505050508661270a565b60006117d1866117aa876127ac565b846040516020016117bd939291906143f2565b6040516020818303038152906040526127ac565b90506000816040516020016117e6919061449b565b6040516020818303038152906040529050611818604051806060016040528060398152602001614d7360399139612944565b6118576040518060400160405280600e81526020017f46696e616c20746f6b656e55524900000000000000000000000000000000000081525082611be7565b611878604051806060016040528060398152602001614ddd60399139612944565b61188233866129dd565b61188c85826129fb565b33600c8b8b60405161189f929190613c88565b908152602001604051809103902060006101000a81548173ffffffffffffffffffffffffffffffffffffffff021916908373ffffffffffffffffffffffffffffffffffffffff16021790555061192a6040518060400160405280601b81526020017f2573206861732072656769737465726564206120646f6d61696e21000000000081525033612a6f565b8989600e6000888152602001908152602001600020919061194c929190612fd3565b506119576007612b0b565b50505050505050505050565b60606119a36040518060400160405280601f81526020017f47657474696e6720616c6c206e616d65732066726f6d20636f6e747261637400815250612944565b60006119af600761259b565b67ffffffffffffffff8111156119c8576119c76134bb565b5b6040519080825280602002602001820160405280156119fb57816020015b60608152602001906001900390816119e65790505b50905060005b611a0b600761259b565b811015611b3957600e60008281526020019081526020016000208054611a3090613a70565b80601f0160208091040260200160405190810160405280929190818152602001828054611a5c90613a70565b8015611aa95780601f10611a7e57610100808354040283529160200191611aa9565b820191906000526020600020905b815481529060010190602001808311611a8c57829003601f168201915b5050505050828281518110611ac157611ac06144bd565b5b6020026020010181905250611b266040518060400160405280601781526020017f4e616d6520666f7220746f6b656e20256420697320257300000000000000000081525082848481518110611b1957611b186144bd565b5b6020026020010151612b21565b8080611b319061451b565b915050611a01565b508091505090565b600080611b9184848080601f016020809104026020016040519081016040528093929190818152602001838380828437600081840152601f19601f8201169050808301925050505050505061215f565b905060008111611ba057600080fd5b6003811415611bba576706f05b59d3b20000915050611be1565b6004811415611bd457670429d069189e0000915050611be1565b67016345785d8a00009150505b92915050565b611c7f8282604051602401611bfd929190614564565b6040516020818303038152906040527f4b5c4277000000000000000000000000000000000000000000000000000000007bffffffffffffffffffffffffffffffffffffffffffffffffffffffff19166020820180517bffffffffffffffffffffffffffffffffffffffffffffffffffffffff8381831617835250505050612bc0565b5050565b60007f01ffc9a7000000000000000000000000000000000000000000000000000000007bffffffffffffffffffffffffffffffffffffffffffffffffffffffff1916827bffffffffffffffffffffffffffffffffffffffffffffffffffffffff1916149050919050565b60008073ffffffffffffffffffffffffffffffffffffffff166002600084815260200190815260200160002060009054906101000a900473ffffffffffffffffffffffffffffffffffffffff1673ffffffffffffffffffffffffffffffffffffffff1614159050919050565b600033905090565b816004600083815260200190815260200160002060006101000a81548173ffffffffffffffffffffffffffffffffffffffff021916908373ffffffffffffffffffffffffffffffffffffffff160217905550808273ffffffffffffffffffffffffffffffffffffffff16611dd483610e1c565b73ffffffffffffffffffffffffffffffffffffffff167f8c5be1e5ebec7d5bd14f71427d1e84f3dd0314c0f7b2291e5b200ac8c7c3b92560405160405180910390a45050565b6000611e2582611ced565b611e64576040517f08c379a0000000000000000000000000000000000000000000000000000000008152600401611e5b9061460d565b60405180910390fd5b6000611e6f83610e1c565b90508073ffffffffffffffffffffffffffffffffffffffff168473ffffffffffffffffffffffffffffffffffffffff161480611eb15750611eb0818561140d565b5b80611eef57508373ffffffffffffffffffffffffffffffffffffffff16611ed784610859565b73ffffffffffffffffffffffffffffffffffffffff16145b91505092915050565b8273ffffffffffffffffffffffffffffffffffffffff16611f1882610e1c565b73ffffffffffffffffffffffffffffffffffffffff1614611f6e576040517f08c379a0000000000000000000000000000000000000000000000000000000008152600401611f659061469f565b60405180910390fd5b600073ffffffffffffffffffffffffffffffffffffffff168273ffffffffffffffffffffffffffffffffffffffff161415611fde576040517f08c379a0000000000000000000000000000000000000000000000000000000008152600401611fd590614731565b60405180910390fd5b611fe9838383612be9565b611ff4600082611d61565b6001600360008573ffffffffffffffffffffffffffffffffffffffff1673ffffffffffffffffffffffffffffffffffffffff16815260200190815260200160002060008282546120449190614751565b925050819055506001600360008473ffffffffffffffffffffffffffffffffffffffff1673ffffffffffffffffffffffffffffffffffffffff168152602001908152602001600020600082825461209b9190614785565b92505081905550816002600083815260200190815260200160002060006101000a81548173ffffffffffffffffffffffffffffffffffffffff021916908373ffffffffffffffffffffffffffffffffffffffff160217905550808273ffffffffffffffffffffffffffffffffffffffff168473ffffffffffffffffffffffffffffffffffffffff167fddf252ad1be2c89b69c2b068fc378daa952ba7f163c4a11628f55a4df523b3ef60405160405180910390a461215a838383612bee565b505050565b60008060008084519050600092505b8082101561230957600085838151811061218b5761218a6144bd565b5b602001015160f81c60f81b9050608060f81b817effffffffffffffffffffffffffffffffffffffffffffffffffffffffffffff191610156121da576001836121d39190614785565b92506122f5565b60e060f81b817effffffffffffffffffffffffffffffffffffffffffffffffffffffffffffff1916101561221c576002836122159190614785565b92506122f4565b60f060f81b817effffffffffffffffffffffffffffffffffffffffffffffffffffffffffffff1916101561225e576003836122579190614785565b92506122f3565b60f8801b817effffffffffffffffffffffffffffffffffffffffffffffffffffffffffffff1916101561229f576004836122989190614785565b92506122f2565b60fc60f81b817effffffffffffffffffffffffffffffffffffffffffffffffffffffffffffff191610156122e1576005836122da9190614785565b92506122f1565b6006836122ee9190614785565b92505b5b5b5b5b5082806123019061451b565b93505061216e565b829350505050919050565b8173ffffffffffffffffffffffffffffffffffffffff168373ffffffffffffffffffffffffffffffffffffffff161415612383576040517f08c379a000000000000000000000000000000000000000000000000000000000815260040161237a90614827565b60405180910390fd5b80600560008573ffffffffffffffffffffffffffffffffffffffff1673ffffffffffffffffffffffffffffffffffffffff16815260200190815260200160002060008473ffffffffffffffffffffffffffffffffffffffff1673ffffffffffffffffffffffffffffffffffffffff16815260200190815260200160002060006101000a81548160ff0219169083151502179055508173ffffffffffffffffffffffffffffffffffffffff168373ffffffffffffffffffffffffffffffffffffffff167f17307eab39ab6107e8899845ad3d59bd9653f200f220920489ca2b5937696c318360405161247491906131b0565b60405180910390a3505050565b61248c848484611ef8565b61249884848484612bf3565b6124d7576040517f08c379a00000000000000000000000000000000000000000000000000000000081526004016124ce906148b9565b60405180910390fd5b50505050565b606060405180602001604052806000815250905090565b60606124ff82611ced565b61253e576040517f08c379a00000000000000000000000000000000000000000000000000000000081526004016125359061494b565b60405180910390fd5b60006125486124dd565b905060008151116125685760405180602001604052806000815250612593565b80612572846125a9565b604051602001612583929190613fcc565b6040516020818303038152906040525b915050919050565b600081600001549050919050565b606060008214156125f1576040518060400160405280600181526020017f30000000000000000000000000000000000000000000000000000000000000008152509050612705565b600082905060005b6000821461262357808061260c9061451b565b915050600a8261261c919061499a565b91506125f9565b60008167ffffffffffffffff81111561263f5761263e6134bb565b5b6040519080825280601f01601f1916602001820160405280156126715781602001600182028036833780820191505090505b5090505b600085146126fe5760018261268a9190614751565b9150600a8561269991906149cb565b60306126a59190614785565b60f81b8183815181106126bb576126ba6144bd565b5b60200101907effffffffffffffffffffffffffffffffffffffffffffffffffffffffffffff1916908160001a905350600a856126f7919061499a565b9450612675565b8093505050505b919050565b6127a68484848460405160240161272494939291906149fc565b6040516020818303038152906040527f9fd009f5000000000000000000000000000000000000000000000000000000007bffffffffffffffffffffffffffffffffffffffffffffffffffffffff19166020820180517bffffffffffffffffffffffffffffffffffffffffffffffffffffffff8381831617835250505050612bc0565b50505050565b606060008251905060008114156127d5576040518060200160405280600081525091505061293f565b600060036002836127e69190614785565b6127f0919061499a565b60046127fc9190614a56565b9050600060208261280d9190614785565b67ffffffffffffffff811115612826576128256134bb565b5b6040519080825280601f01601f1916602001820160405280156128585781602001600182028036833780820191505090505b5090506000604051806060016040528060408152602001614e16604091399050600181016020830160005b868110156128fc5760038101905062ffffff818a015116603f8160121c168401518060081b905060ff603f83600c1c1686015116810190508060081b905060ff603f8360061c1686015116810190508060081b905060ff603f831686015116810190508060e01b90508084526004840193505050612883565b506003860660018114612916576002811461292657612931565b613d3d60f01b6002830352612931565b603d60f81b60018303525b508484525050819450505050505b919050565b6129da816040516024016129589190613264565b6040516020818303038152906040527f41304fac000000000000000000000000000000000000000000000000000000007bffffffffffffffffffffffffffffffffffffffffffffffffffffffff19166020820180517bffffffffffffffffffffffffffffffffffffffffffffffffffffffff8381831617835250505050612bc0565b50565b6129f7828260405180602001604052806000815250612d7b565b5050565b612a0482611ced565b612a43576040517f08c379a0000000000000000000000000000000000000000000000000000000008152600401612a3a90614b22565b60405180910390fd5b80600660008481526020019081526020016000209080519060200190612a6a929190613059565b505050565b612b078282604051602401612a85929190614b42565b6040516020818303038152906040527f319af333000000000000000000000000000000000000000000000000000000007bffffffffffffffffffffffffffffffffffffffffffffffffffffffff19166020820180517bffffffffffffffffffffffffffffffffffffffffffffffffffffffff8381831617835250505050612bc0565b5050565b6001816000016000828254019250508190555050565b612bbb838383604051602401612b3993929190614b72565b6040516020818303038152906040527fa3f5c739000000000000000000000000000000000000000000000000000000007bffffffffffffffffffffffffffffffffffffffffffffffffffffffff19166020820180517bffffffffffffffffffffffffffffffffffffffffffffffffffffffff8381831617835250505050612bc0565b505050565b60008151905060006a636f6e736f6c652e6c6f679050602083016000808483855afa5050505050565b505050565b505050565b6000612c148473ffffffffffffffffffffffffffffffffffffffff16612dd6565b15612d6e578373ffffffffffffffffffffffffffffffffffffffff1663150b7a02612c3d611d59565b8786866040518563ffffffff1660e01b8152600401612c5f9493929190614c0c565b6020604051808303816000875af1925050508015612c9b57506040513d601f19601f82011682018060405250810190612c989190614c6d565b60015b612d1e573d8060008114612ccb576040519150601f19603f3d011682016040523d82523d6000602084013e612cd0565b606091505b50600081511415612d16576040517f08c379a0000000000000000000000000000000000000000000000000000000008152600401612d0d906148b9565b60405180910390fd5b805181602001fd5b63150b7a0260e01b7bffffffffffffffffffffffffffffffffffffffffffffffffffffffff1916817bffffffffffffffffffffffffffffffffffffffffffffffffffffffff191614915050612d73565b600190505b949350505050565b612d858383612df9565b612d926000848484612bf3565b612dd1576040517f08c379a0000000000000000000000000000000000000000000000000000000008152600401612dc8906148b9565b60405180910390fd5b505050565b6000808273ffffffffffffffffffffffffffffffffffffffff163b119050919050565b600073ffffffffffffffffffffffffffffffffffffffff168273ffffffffffffffffffffffffffffffffffffffff161415612e69576040517f08c379a0000000000000000000000000000000000000000000000000000000008152600401612e6090614ce6565b60405180910390fd5b612e7281611ced565b15612eb2576040517f08c379a0000000000000000000000000000000000000000000000000000000008152600401612ea990614d52565b60405180910390fd5b612ebe60008383612be9565b6001600360008473ffffffffffffffffffffffffffffffffffffffff1673ffffffffffffffffffffffffffffffffffffffff1681526020019081526020016000206000828254612f0e9190614785565b92505081905550816002600083815260200190815260200160002060006101000a81548173ffffffffffffffffffffffffffffffffffffffff021916908373ffffffffffffffffffffffffffffffffffffffff160217905550808273ffffffffffffffffffffffffffffffffffffffff16600073ffffffffffffffffffffffffffffffffffffffff167fddf252ad1be2c89b69c2b068fc378daa952ba7f163c4a11628f55a4df523b3ef60405160405180910390a4612fcf60008383612bee565b5050565b828054612fdf90613a70565b90600052602060002090601f0160209004810192826130015760008555613048565b82601f1061301a57803560ff1916838001178555613048565b82800160010185558215613048579182015b8281111561304757823582559160200191906001019061302c565b5b50905061305591906130df565b5090565b82805461306590613a70565b90600052602060002090601f01602090048101928261308757600085556130ce565b82601f106130a057805160ff19168380011785556130ce565b828001600101855582156130ce579182015b828111156130cd5782518255916020019190600101906130b2565b5b5090506130db91906130df565b5090565b5b808211156130f85760008160009055506001016130e0565b5090565b6000604051905090565b600080fd5b600080fd5b60007fffffffff0000000000000000000000000000000000000000000000000000000082169050919050565b61314581613110565b811461315057600080fd5b50565b6000813590506131628161313c565b92915050565b60006020828403121561317e5761317d613106565b5b600061318c84828501613153565b91505092915050565b60008115159050919050565b6131aa81613195565b82525050565b60006020820190506131c560008301846131a1565b92915050565b600081519050919050565b600082825260208201905092915050565b60005b838110156132055780820151818401526020810190506131ea565b83811115613214576000848401525b50505050565b6000601f19601f8301169050919050565b6000613236826131cb565b61324081856131d6565b93506132508185602086016131e7565b6132598161321a565b840191505092915050565b6000602082019050818103600083015261327e818461322b565b905092915050565b6000819050919050565b61329981613286565b81146132a457600080fd5b50565b6000813590506132b681613290565b92915050565b6000602082840312156132d2576132d1613106565b5b60006132e0848285016132a7565b91505092915050565b600073ffffffffffffffffffffffffffffffffffffffff82169050919050565b6000613314826132e9565b9050919050565b61332481613309565b82525050565b600060208201905061333f600083018461331b565b92915050565b61334e81613309565b811461335957600080fd5b50565b60008135905061336b81613345565b92915050565b6000806040838503121561338857613387613106565b5b60006133968582860161335c565b92505060206133a7858286016132a7565b9150509250929050565b600080fd5b600080fd5b600080fd5b60008083601f8401126133d6576133d56133b1565b5b8235905067ffffffffffffffff8111156133f3576133f26133b6565b5b60208301915083600182028301111561340f5761340e6133bb565b5b9250929050565b6000806020838503121561342d5761342c613106565b5b600083013567ffffffffffffffff81111561344b5761344a61310b565b5b613457858286016133c0565b92509250509250929050565b60008060006060848603121561347c5761347b613106565b5b600061348a8682870161335c565b935050602061349b8682870161335c565b92505060406134ac868287016132a7565b9150509250925092565b600080fd5b7f4e487b7100000000000000000000000000000000000000000000000000000000600052604160045260246000fd5b6134f38261321a565b810181811067ffffffffffffffff82111715613512576135116134bb565b5b80604052505050565b60006135256130fc565b905061353182826134ea565b919050565b600067ffffffffffffffff821115613551576135506134bb565b5b61355a8261321a565b9050602081019050919050565b82818337600083830152505050565b600061358961358484613536565b61351b565b9050828152602081018484840111156135a5576135a46134b6565b5b6135b0848285613567565b509392505050565b600082601f8301126135cd576135cc6133b1565b5b81356135dd848260208601613576565b91505092915050565b6000602082840312156135fc576135fb613106565b5b600082013567ffffffffffffffff81111561361a5761361961310b565b5b613626848285016135b8565b91505092915050565b60006020828403121561364557613644613106565b5b60006136538482850161335c565b91505092915050565b61366581613286565b82525050565b6000602082019050613680600083018461365c565b92915050565b6000613691826132e9565b9050919050565b6136a181613686565b82525050565b60006020820190506136bc6000830184613698565b92915050565b6136cb81613195565b81146136d657600080fd5b50565b6000813590506136e8816136c2565b92915050565b6000806040838503121561370557613704613106565b5b60006137138582860161335c565b9250506020613724858286016136d9565b9150509250929050565b600067ffffffffffffffff821115613749576137486134bb565b5b6137528261321a565b9050602081019050919050565b600061377261376d8461372e565b61351b565b90508281526020810184848401111561378e5761378d6134b6565b5b613799848285613567565b509392505050565b600082601f8301126137b6576137b56133b1565b5b81356137c684826020860161375f565b91505092915050565b600080600080608085870312156137e9576137e8613106565b5b60006137f78782880161335c565b94505060206138088782880161335c565b9350506040613819878288016132a7565b925050606085013567ffffffffffffffff81111561383a5761383961310b565b5b613846878288016137a1565b91505092959194509250565b6000806000806040858703121561386c5761386b613106565b5b600085013567ffffffffffffffff81111561388a5761388961310b565b5b613896878288016133c0565b9450945050602085013567ffffffffffffffff8111156138b9576138b861310b565b5b6138c5878288016133c0565b925092505092959194509250565b600080604083850312156138ea576138e9613106565b5b60006138f88582860161335c565b92505060206139098582860161335c565b9150509250929050565b600081519050919050565b600082825260208201905092915050565b6000819050602082019050919050565b600082825260208201905092915050565b600061395b826131cb565b613965818561393f565b93506139758185602086016131e7565b61397e8161321a565b840191505092915050565b60006139958383613950565b905092915050565b6000602082019050919050565b60006139b582613913565b6139bf818561391e565b9350836020820285016139d18561392f565b8060005b85811015613a0d57848403895281516139ee8582613989565b94506139f98361399d565b925060208a019950506001810190506139d5565b50829750879550505050505092915050565b60006020820190508181036000830152613a3981846139aa565b905092915050565b7f4e487b7100000000000000000000000000000000000000000000000000000000600052602260045260246000fd5b60006002820490506001821680613a8857607f821691505b60208210811415613a9c57613a9b613a41565b5b50919050565b7f4552433732313a20617070726f76656420717565727920666f72206e6f6e657860008201527f697374656e7420746f6b656e0000000000000000000000000000000000000000602082015250565b6000613afe602c836131d6565b9150613b0982613aa2565b604082019050919050565b60006020820190508181036000830152613b2d81613af1565b9050919050565b7f4552433732313a20617070726f76616c20746f2063757272656e74206f776e6560008201527f7200000000000000000000000000000000000000000000000000000000000000602082015250565b6000613b906021836131d6565b9150613b9b82613b34565b604082019050919050565b60006020820190508181036000830152613bbf81613b83565b9050919050565b7f4552433732313a20617070726f76652063616c6c6572206973206e6f74206f7760008201527f6e6572206e6f7220617070726f76656420666f7220616c6c0000000000000000602082015250565b6000613c226038836131d6565b9150613c2d82613bc6565b604082019050919050565b60006020820190508181036000830152613c5181613c15565b9050919050565b600081905092915050565b6000613c6f8385613c58565b9350613c7c838584613567565b82840190509392505050565b6000613c95828486613c63565b91508190509392505050565b7f4552433732313a207472616e736665722063616c6c6572206973206e6f74206f60008201527f776e6572206e6f7220617070726f766564000000000000000000000000000000602082015250565b6000613cfd6031836131d6565b9150613d0882613ca1565b604082019050919050565b60006020820190508181036000830152613d2c81613cf0565b9050919050565b600081905092915050565b50565b6000613d4e600083613d33565b9150613d5982613d3e565b600082019050919050565b6000613d6f82613d41565b9150819050919050565b7f4661696c656420746f207769746864726177204d617469630000000000000000600082015250565b6000613daf6018836131d6565b9150613dba82613d79565b602082019050919050565b60006020820190508181036000830152613dde81613da2565b9050919050565b7f4552433732313a206f776e657220717565727920666f72206e6f6e657869737460008201527f656e7420746f6b656e0000000000000000000000000000000000000000000000602082015250565b6000613e416029836131d6565b9150613e4c82613de5565b604082019050919050565b60006020820190508181036000830152613e7081613e34565b9050919050565b7f4552433732313a2062616c616e636520717565727920666f7220746865207a6560008201527f726f206164647265737300000000000000000000000000000000000000000000602082015250565b6000613ed3602a836131d6565b9150613ede82613e77565b604082019050919050565b60006020820190508181036000830152613f0281613ec6565b9050919050565b7f45524337323155524953746f726167653a2055524920717565727920666f722060008201527f6e6f6e6578697374656e7420746f6b656e000000000000000000000000000000602082015250565b6000613f656031836131d6565b9150613f7082613f09565b604082019050919050565b60006020820190508181036000830152613f9481613f58565b9050919050565b6000613fa6826131cb565b613fb08185613c58565b9350613fc08185602086016131e7565b80840191505092915050565b6000613fd88285613f9b565b9150613fe48284613f9b565b91508190509392505050565b7f616c726561647920726567697374657265640000000000000000000000000000600082015250565b60006140266012836131d6565b915061403182613ff0565b602082019050919050565b6000602082019050818103600083015261405581614019565b9050919050565b7f496e76616c6964204e616d650000000000000000000000000000000000000000600082015250565b6000614092600c836131d6565b915061409d8261405c565b602082019050919050565b600060208201905081810360008301526140c181614085565b9050919050565b7f4e6f7420656e6f756768204d6174696320706169640000000000000000000000600082015250565b60006140fe6015836131d6565b9150614109826140c8565b602082019050919050565b6000602082019050818103600083015261412d816140f1565b9050919050565b7f2e00000000000000000000000000000000000000000000000000000000000000600082015250565b600061416a600183613c58565b915061417582614134565b600182019050919050565b60008190508160005260206000209050919050565b600081546141a281613a70565b6141ac8186613c58565b945060018216600081146141c757600181146141d85761420b565b60ff1983168652818601935061420b565b6141e185614180565b60005b83811015614203578154818901526001820191506020810190506141e4565b838801955050505b50505092915050565b6000614221828587613c63565b915061422c8261415d565b91506142388284614195565b9150819050949350505050565b60006142518286614195565b915061425d8285613f9b565b91506142698284614195565b9150819050949350505050565b7f7b226e616d65223a202200000000000000000000000000000000000000000000600082015250565b60006142ac600a83613c58565b91506142b782614276565b600a82019050919050565b7f222c20226465736372697074696f6e223a20224120646f6d61696e206f6e207460008201527f6865204e696e6a61206e616d652073657276696365222c2022696d616765223a60208201527f2022646174613a696d6167652f7376672b786d6c3b6261736536342c00000000604082015250565b6000614344605c83613c58565b915061434f826142c2565b605c82019050919050565b7f222c226c656e677468223a220000000000000000000000000000000000000000600082015250565b6000614390600c83613c58565b915061439b8261435a565b600c82019050919050565b7f227d000000000000000000000000000000000000000000000000000000000000600082015250565b60006143dc600283613c58565b91506143e7826143a6565b600282019050919050565b60006143fd8261429f565b91506144098286613f9b565b915061441482614337565b91506144208285613f9b565b915061442b82614383565b91506144378284613f9b565b9150614442826143cf565b9150819050949350505050565b7f646174613a6170706c69636174696f6e2f6a736f6e3b6261736536342c000000600082015250565b6000614485601d83613c58565b91506144908261444f565b601d82019050919050565b60006144a682614478565b91506144b28284613f9b565b915081905092915050565b7f4e487b7100000000000000000000000000000000000000000000000000000000600052603260045260246000fd5b7f4e487b7100000000000000000000000000000000000000000000000000000000600052601160045260246000fd5b600061452682613286565b91507fffffffffffffffffffffffffffffffffffffffffffffffffffffffffffffffff821415614559576145586144ec565b5b600182019050919050565b6000604082019050818103600083015261457e818561322b565b90508181036020830152614592818461322b565b90509392505050565b7f4552433732313a206f70657261746f7220717565727920666f72206e6f6e657860008201527f697374656e7420746f6b656e0000000000000000000000000000000000000000602082015250565b60006145f7602c836131d6565b91506146028261459b565b604082019050919050565b60006020820190508181036000830152614626816145ea565b9050919050565b7f4552433732313a207472616e736665722066726f6d20696e636f72726563742060008201527f6f776e6572000000000000000000000000000000000000000000000000000000602082015250565b60006146896025836131d6565b91506146948261462d565b604082019050919050565b600060208201905081810360008301526146b88161467c565b9050919050565b7f4552433732313a207472616e7366657220746f20746865207a65726f2061646460008201527f7265737300000000000000000000000000000000000000000000000000000000602082015250565b600061471b6024836131d6565b9150614726826146bf565b604082019050919050565b6000602082019050818103600083015261474a8161470e565b9050919050565b600061475c82613286565b915061476783613286565b92508282101561477a576147796144ec565b5b828203905092915050565b600061479082613286565b915061479b83613286565b9250827fffffffffffffffffffffffffffffffffffffffffffffffffffffffffffffffff038211156147d0576147cf6144ec565b5b828201905092915050565b7f4552433732313a20617070726f766520746f2063616c6c657200000000000000600082015250565b60006148116019836131d6565b915061481c826147db565b602082019050919050565b6000602082019050818103600083015261484081614804565b9050919050565b7f4552433732313a207472616e7366657220746f206e6f6e20455243373231526560008201527f63656976657220696d706c656d656e7465720000000000000000000000000000602082015250565b60006148a36032836131d6565b91506148ae82614847565b604082019050919050565b600060208201905081810360008301526148d281614896565b9050919050565b7f4552433732314d657461646174613a2055524920717565727920666f72206e6f60008201527f6e6578697374656e7420746f6b656e0000000000000000000000000000000000602082015250565b6000614935602f836131d6565b9150614940826148d9565b604082019050919050565b6000602082019050818103600083015261496481614928565b9050919050565b7f4e487b7100000000000000000000000000000000000000000000000000000000600052601260045260246000fd5b60006149a582613286565b91506149b083613286565b9250826149c0576149bf61496b565b5b828204905092915050565b60006149d682613286565b91506149e183613286565b9250826149f1576149f061496b565b5b828206905092915050565b60006080820190508181036000830152614a16818761322b565b90508181036020830152614a2a818661322b565b90508181036040830152614a3e818561322b565b9050614a4d606083018461365c565b95945050505050565b6000614a6182613286565b9150614a6c83613286565b9250817fffffffffffffffffffffffffffffffffffffffffffffffffffffffffffffffff0483118215151615614aa557614aa46144ec565b5b828202905092915050565b7f45524337323155524953746f726167653a2055524920736574206f66206e6f6e60008201527f6578697374656e7420746f6b656e000000000000000000000000000000000000602082015250565b6000614b0c602e836131d6565b9150614b1782614ab0565b604082019050919050565b60006020820190508181036000830152614b3b81614aff565b9050919050565b60006040820190508181036000830152614b5c818561322b565b9050614b6b602083018461331b565b9392505050565b60006060820190508181036000830152614b8c818661322b565b9050614b9b602083018561365c565b8181036040830152614bad818461322b565b9050949350505050565b600081519050919050565b600082825260208201905092915050565b6000614bde82614bb7565b614be88185614bc2565b9350614bf88185602086016131e7565b614c018161321a565b840191505092915050565b6000608082019050614c21600083018761331b565b614c2e602083018661331b565b614c3b604083018561365c565b8181036060830152614c4d8184614bd3565b905095945050505050565b600081519050614c678161313c565b92915050565b600060208284031215614c8357614c82613106565b5b6000614c9184828501614c58565b91505092915050565b7f4552433732313a206d696e7420746f20746865207a65726f2061646472657373600082015250565b6000614cd06020836131d6565b9150614cdb82614c9a565b602082019050919050565b60006020820190508181036000830152614cff81614cc3565b9050919050565b7f4552433732313a20746f6b656e20616c7265616479206d696e74656400000000600082015250565b6000614d3c601c836131d6565b9150614d4782614d06565b602082019050919050565b60006020820190508181036000830152614d6b81614d2f565b905091905056fe0a2d2d2d2d2d2d2d2d2d2d2d2d2d2d2d2d2d2d2d2d2d2d2d2d2d2d2d2d2d2d2d2d2d2d2d2d2d2d2d2d2d2d2d2d2d2d2d2d2d2d2d2d2d2d2d2d5265676973746572696e672025732e2573206f6e2074686520636f6e7472616374207769746820746f6b656e49442025642d2d2d2d2d2d2d2d2d2d2d2d2d2d2d2d2d2d2d2d2d2d2d2d2d2d2d2d2d2d2d2d2d2d2d2d2d2d2d2d2d2d2d2d2d2d2d2d2d2d2d2d2d2d2d2d0a4142434445464748494a4b4c4d4e4f505152535455565758595a6162636465666768696a6b6c6d6e6f707172737475767778797a303132333435363738392b2fa2646970667358221220cd38530ea24f9fddb9efcdce46d8b8db40baa5e1afa26eea3ad5a61a71ec27bd64736f6c634300080a00333c73766720786d6c6e733d22687474703a2f2f7777772e77332e6f72672f323030302f737667222077696474683d2232373022206865696768743d22323730222066696c6c3d226e6f6e65223e3c706174682066696c6c3d2275726c282342292220643d224d302030683237307632373048307a222f3e3c646566733e3c66696c7465722069643d22412220636f6c6f722d696e746572706f6c6174696f6e2d66696c746572733d2273524742222066696c746572556e6974733d227573657253706163654f6e55736522206865696768743d22323730222077696474683d22323730223e3c666544726f70536861646f772064783d2230222064793d22312220737464446576696174696f6e3d22322220666c6f6f642d6f7061636974793d222e323235222077696474683d223230302522206865696768743d2232303025222f3e3c2f66696c7465723e3c2f646566733e3c7061746820643d224d37322e3836332034322e393439632d2e3636382d2e3338372d312e3432362d2e35392d322e3139372d2e3539732d312e3532392e3230342d322e3139372e35396c2d31302e30383120362e3033322d362e383520332e3933342d31302e30383120362e303332632d2e3636382e3338372d312e3432362e35392d322e3139372e3539732d312e3532392d2e3230342d322e3139372d2e35396c2d382e3031332d342e37323161342e353220342e35322030203020312d312e3538392d312e363136632d2e3338342d2e3636352d2e3539342d312e3431382d2e3630382d322e313837762d392e3331632d2e3031332d2e3737352e3138352d312e3533382e3537322d322e32303861342e323520342e323520302030203120312e3632352d312e3539356c372e3838342d342e3539632e3636382d2e33383720312e3432362d2e353920322e3139372d2e353973312e3532392e32303420322e3139372e35396c372e38383420342e353961342e353220342e353220302030203120312e35383920312e363136632e3338342e3636352e35393420312e3431382e36303820322e31383776362e3033326c362e38352d342e303635762d362e303332632e3031332d2e3737352d2e3138352d312e3533382d2e3537322d322e32303861342e323520342e32352030203020302d312e3632352d312e3539354c34312e3435362032342e3539632d2e3636382d2e3338372d312e3432362d2e35392d322e3139372d2e3539732d312e3532392e3230342d322e3139372e35396c2d31342e38363420382e36353561342e323520342e32352030203020302d312e36323520312e353935632d2e3338372e36372d2e35383520312e3433342d2e35373220322e3230387631372e343431632d2e3031332e3737352e31383520312e3533382e35373220322e32303861342e323520342e323520302030203020312e36323520312e3539356c31342e38363420382e363535632e3636382e33383720312e3432362e353920322e3139372e353973312e3532392d2e32303420322e3139372d2e35396c31302e3038312d352e39303120362e38352d342e3036352031302e3038312d352e393031632e3636382d2e33383720312e3432362d2e353920322e3139372d2e353973312e3532392e32303420322e3139372e35396c372e38383420342e353961342e353220342e353220302030203120312e35383920312e363136632e3338342e3636352e35393420312e3431382e36303820322e31383776392e333131632e3031332e3737352d2e31383520312e3533382d2e35373220322e32303861342e323520342e32352030203020312d312e36323520312e3539356c2d372e38383420342e373231632d2e3636382e3338372d312e3432362e35392d322e3139372e3539732d312e3532392d2e3230342d322e3139372d2e35396c2d372e3838342d342e353961342e353220342e35322030203020312d312e3538392d312e363136632d2e3338352d2e3636352d2e3539342d312e3431382d2e3630382d322e313837762d362e3033326c2d362e383520342e30363576362e303332632d2e3031332e3737352e31383520312e3533382e35373220322e32303861342e323520342e323520302030203020312e36323520312e3539356c31342e38363420382e363535632e3636382e33383720312e3432362e353920322e3139372e353973312e3532392d2e32303420322e3139372d2e35396c31342e3836342d382e363535632e3635372d2e33393420312e3230342d2e393520312e3538392d312e363136732e3539342d312e3431382e3630392d322e3138375635352e353338632e3031332d2e3737352d2e3138352d312e3533382d2e3537322d322e32303861342e323520342e32352030203020302d312e3632352d312e3539356c2d31342e3939332d382e3738367a222066696c6c3d2223666666222f3e3c646566733e3c6c696e6561724772616469656e742069643d2242222078313d2230222079313d2230222078323d22323730222079323d2232373022206772616469656e74556e6974733d227573657253706163654f6e557365223e3c73746f702073746f702d636f6c6f723d2223636235656565222f3e3c73746f70206f66667365743d2231222073746f702d636f6c6f723d2223306364376534222073746f702d6f7061636974793d222e3939222f3e3c2f6c696e6561724772616469656e743e3c2f646566733e3c7465787420783d2233322e352220793d223233312220666f6e742d73697a653d223237222066696c6c3d2223666666222066696c7465723d2275726c282341292220666f6e742d66616d696c793d22506c7573204a616b617274612053616e732c44656a6156752053616e732c4e6f746f20436f6c6f7220456d6f6a692c4170706c6520436f6c6f7220456d6f6a692c73616e732d73657269662220666f6e742d7765696768743d22626f6c64223e",
  "linkReferences": {},
  "deployedLinkReferences": {}
}